:100000000C94E4130C9424140C9424140C942414D1
:100010000C9424140C9424140C9424140C94241480
:100020000C9424140C9424140C9424140C94241470
:100030000C9424140C9424140C9424140C94241460
:100040000C9424140C948D250C9424140C942414D6
:100050000C9424140C9429250C9424140C94DF245F
:100060000C9424140C9468740C945E740C942414F2
:100070000C9424140C9424140C9424140C94241420
:100080000C94C9550C9424140C9424140C9424142A
:100090000C9424140C9424140C9424140C94241400
:1000A0000C9424140C9424140C949B550C94241438
:1000B0000C9424140C9424140C9424140C942414E0
:1000C0000C9424140C9424140C9424140C942414D0
:1000D0000C9424140C9424140C9424140C942414C0
:1000E0000C942414084AD73B3BCE016E84BCBFFD60
:1000F000C12F3D6C74319ABD56833DDA3D00C77FF8
:1001000011BED9E4BB4C3E916BAAAABE0000008090
:100110003F05A84CCDB2D44EB93836A9020C50B91F
:10012000918688083CA6AAAA2ABE000000803F0744
:10013000634236B79BD8A71A39685618AEBAAB5582
:100140008C1D3CB7CC5763BD6DEDFD753EF6177247
:1001500031BF000000803F08000000BE9224491219
:100160003EABAAAA2ABECDCCCC4C3E00000080BE3D
:10017000ABAAAAAA3E00000000BF000000803F001A
:1001800000000000084178D3BB4387D1133D190E0E
:100190003CC3BD4282AD2B3E68EC8276BED98FE176
:1001A000A93E4C80EFFFBE01C4FF7F3F000000006E
:1001B00000004E414E494E495459494E46CDCCCC93
:1001C0003D0AD7233C17B7D13877CC2B329595E62B
:1001D000241FB14F0A000020410000C84200401C0B
:1001E0004620BCBE4CCA1B0E5AAEC59D744142533C
:1001F00000504C4100506C65617365205265736519
:1002000074005052494E5445522048414C54454484
:100210000025533A202553004B494C4C45442E2091
:10022000005072696E7465722068616C7465642E2A
:10023000206B696C6C28292063616C6C6564210AF1
:10024000006563686F3A004572726F723A0020442D
:100250000020204D32303020530020284469736143
:10026000626C6564293A0046696C616D656E742044
:1002700073657474696E67730020204D32303120CD
:1002800058004D617820416363656C6572617469E3
:100290006F6E2028756E6974732F733229002020C9
:1002A0004D3230332058004D6178206665656472A8
:1002B000617465732028756E6974732F732900202B
:1002C000520020204D323034205000416363656C71
:1002D00065726174696F6E2028756E6974732F730F
:1002E00032292028503C7072696E742D61636365F9
:1002F0006C3E20523C726574726163742D6163635D
:10030000656C3E20543C74726176656C2D6163634C
:10031000656C3E2900204A00205400205300202014
:100320004D323035204200416476616E6365642051
:1003300028423C6D696E5F7365676D656E745F74AE
:10034000696D655F75733E20533C6D696E5F6665D0
:100350006564726174653E20543C6D696E5F7472B1
:100360006176656C5F66656564726174653E204A9E
:100370003C6A756E635F6465763E29002044002008
:10038000490020204D333031205000486F74656E95
:1003900064205049440020496E76616C6964206590
:1003A00078747275646572200020204D32303620DA
:1003B0005800486F6D65206F666673657400436111
:1003C000703A00434F4E4649475F4558504F52548C
:1003D000004D4541545041434B00434F4F4C455213
:1003E0005F54454D50455241545552450043484194
:1003F0004D4245525F54454D50455241545552452A
:1004000000424142595354455050494E47004152D1
:100410004353004D4F54494F4E5F4D4F4445530099
:10042000544845524D414C5F50524F5445435449F6
:100430004F4E00455854454E4445445F4D323000C0
:10044000435553544F4D5F4649524D574152455FB6
:1004500055504C4F4144004C464E5F57524954450D
:10046000004C4F4E475F46494C454E414D4500417B
:1004700055544F5245504F52545F53445F5354416B
:100480005455530053445F57524954450052455008
:10049000454154005344434152440050524F4D5043
:1004A000545F535550504F525400484F53545F417E
:1004B0004354494F4E5F434F4D4D414E44530045C9
:1004C0004D455247454E43595F50415253455200A6
:1004D000434153455F4C494748545F42524947485E
:1004E000544E45535300544F47474C455F4C494782
:1004F00048545300534F4654574152455F504F574D
:100500004552004255494C445F50455243454E5474
:10051000004C4556454C494E475F44415441005AB2
:100520005F50524F42450052554E4F555400415571
:10053000544F4C4556454C005052494E545F4A4F1B
:10054000420050524F4752455353004155544F5269
:1005500045504F52545F54454D50004155544F52F1
:1005600045504F52545F504F5300564F4C554D45D8
:100570005452494300454550524F4D0042494E4167
:1005800052595F46494C455F5452414E534645527D
:100590000053455249414C5F584F4E5F584F4646B5
:1005A000004649524D574152455F4E414D453A4DE7
:1005B00061726C696E20322E312E322E322028412B
:1005C000707220313520323032342031343A3436B2
:1005D0003A34372920534F555243455F434F4445E2
:1005E0005F55524C3A6769746875622E636F6D2F60
:1005F0004D61726C696E4669726D776172652F4DDF
:1006000061726C696E2050524F544F434F4C5F568D
:10061000455253494F4E3A312E30204D41434849BF
:100620004E455F545950453A3344205072696E74B8
:1006300065722045585452554445525F434F554EBC
:10064000543A3120555549443A6365646532613204
:10065000662D343161322D343734382D39623132E0
:100660002D63353563363266333637666600203B98
:100670000020204D3835312058005A2D50726F62BD
:1006800065204F66667365740020573A00436F6FAC
:100690006C696E672E2E2E004531202553002057A1
:1006A0003A0042656420436F6F6C696E672E2E2E90
:1006B000004265642048656174696E672E2E2E00C5
:1006C000206661696C65642120426164206865610F
:1006D0007465722069640A00504944204175746F42
:1006E00074756E650023646566696E6520444546D1
:1006F00041554C545F004B6420004B6920004B7007
:1007000020002066696E69736865642120507574E5
:1007100020746865206C617374204B702C204B69C9
:1007200020616E64204B6420636F6E7374616E741D
:10073000732066726F6D2062656C6F7720696E74CE
:100740006F20436F6E66696775726174696F6E2E94
:10075000680A00504944204175746F74756E6500D5
:10076000206661696C6564212074696D656F7574BC
:100770000A00504944204175746F74756E650020FD
:100780006661696C6564212054656D706572617481
:1007900075726520746F6F20686967680A00504938
:1007A00044204175746F74756E6500504944204350
:1007B00079636C65730025532025692F2569002016
:1007C0004B643A2000204B693A2000204B703A20BD
:1007D0000020436C617373696320504944200A0010
:1007E0002054753A2000204B753A2000206D617826
:1007F0003A2000206D696E3A200020643A200020E3
:10080000626961733A200048656174696E672E2ED3
:100810002E002073746172740A005049442041759F
:10082000746F74756E6500206661696C6564212063
:1008300054656D706572617475726520746F6F2098
:10084000686967680A00504944204175746F74757F
:100850006E6500504944204175746F74756E650073
:10086000A10000006900A20000006300B0000000C9
:100870000900C10000004100C20000004100C300A7
:1008800000004100C40000004100C500000041001C
:10089000C60000004145C70000004300C80000003A
:1008A0004500C90000004500CD0000004900D1000E
:1008B00000004E00D50000004F00D60000004F00A1
:1008C000D70000007800DC0000005500DD000000CB
:1008D0005900E00000006100E10000006100E2005A
:1008E00000006100E30000006100E400000061001E
:1008F000E50000006100E60000006165E70000001F
:100900006300E80000006500E90000006500EA00FF
:1009100000006500EB0000006500EC0000006900CD
:10092000ED0000006900EE0000006900EF0000002B
:100930006900F10000006E00F20000006F00F3009B
:1009400000006F00F40000006F00F50000006F0071
:10095000F60000006F00F80000006F00F9000000D2
:100960007500FA0000007500FB0000007500FC0037
:1009700000007500FD0000007900FF000000790014
:1009800004010000410005010000610006010000B3
:1009900043000701000063000C01000043000D014B
:1009A000000063000E01000044000F01000064001D
:1009B0001101000064001901000065001A01000027
:1009C00045001B01000065001F01000067003001A9
:1009D00000004900310100006900410100004C00A5
:1009E000420100006C00430100004E004401000081
:1009F0006E00480100006E005801000052005901CD
:100A0000000072005A01000053005B0100007300F7
:100A10005F010000730060010000530061010000ED
:100A200073006501000074006F01000075007C0117
:100A300000007A007D0100005A007E0100007A006B
:100A4000920100006600E30200007800222000000E
:100A50002E001E210000507822210000544D9021CC
:100A600000003C2D922100002D3EB021000003002B
:100A7000BB21000004003C2200007E004822000050
:100A80007E3D60220000213D612200003D00642285
:100A900000003C3D652200003E3DF12300000700C0
:100AA000A03000003D0021F301000200C2F401006B
:100AB0000500A2000000EC00B0000000DF00E40030
:100AC0000000E100F6000000EF00F7000000FD006C
:100AD000FC000000F500E3020000EB0087030000CB
:100AE000A5008F030000F40098030000F2009E03AD
:100AF0000000E300A3030000F600A9030000F400D7
:100B0000AC030000E000AD030000E300B10300000F
:100B1000E000B2030000E200B5030000E300B80308
:100B20000000F200BC030000E400BE030000E3008C
:100B3000C0030000F700C1030000E600C30300008B
:100B4000E500902100007F00922100007E001A2223
:100B50000000E8001E220000F30088250000FF00CE
:100B600002300000A1000C300000A2000D30000097
:100B7000A3009B300000DE009C300000DF00A030AE
:100B800000003D00A1300000A700A2300000B1002D
:100B9000A3300000A800A4300000B200A53000007F
:100BA000A900A6300000B300A7300000AA00A830BA
:100BB0000000B400A9300000AB00AA300000B5006E
:100BC000AB300000B600AC300000B6DEAD30000047
:100BD000B700AE300000B7DEAF300000B800B03074
:100BE0000000B8DEB1300000B900B2300000B9DE5C
:100BF000B3300000BA00B4300000BADEB5300000F7
:100C0000BB00B6300000BBDEB7300000BC00B8301F
:100C10000000BCDEB9300000BD00BA300000BDDE0F
:100C2000BB300000BE00BC300000BEDEBD300000A6
:100C3000BF00BE300000BFDEBF300000C000C030CB
:100C40000000C0DEC1300000C100C2300000C1DEC3
:100C5000C3300000AF00C4300000C200C530000047
:100C6000C2DEC6300000C300C7300000C3DEC8309B
:100C70000000C400C9300000C4DECA300000C50056
:100C8000CB300000C600CC300000C700CD300000E3
:100C9000C800CE300000C900CF300000CA00D030FC
:100CA0000000CADED1300000CADFD2300000CB0025
:100CB000D3300000CBDED4300000CBDFD5300000D5
:100CC000CC00D6300000CCDED7300000CCDFD830EE
:100CD0000000CD00D9300000CDDEDA300000CDDFDD
:100CE000DB300000CE00DC300000CEDEDD30000066
:100CF000CEDFDE300000CF00DF300000D000E0307B
:100D00000000D100E1300000D200E2300000D3004A
:100D1000E3300000AC00E4300000D400E530000017
:100D2000AD00E6300000D500E7300000AE00E8304E
:100D30000000D600E9300000D700EA300000D800FB
:100D4000EB300000D900EC300000DA00ED3000009C
:100D5000DB00EF300000DC00F2300000A600F330D2
:100D60000000DD00F4300000B3DEF7300000DCDE10
:100D7000FA300000A6DEFB300000A500FC300000C9
:100D8000B000FD300000A400074E0000FB008651BB
:100D90000000FC0043530000FA0064FF0000A400C0
:100DA00065FF0000A50066FF0000A60067FF0000C9
:100DB000A70068FF0000A80069FF0000A9006AFF03
:100DC0000000AA006BFF0000AB006CFF0000AC004D
:100DD0006DFF0000AD006EFF0000AE006FFF000071
:100DE000AF0070FF0000B00071FF0000B10072FFA3
:100DF0000000B20073FF0000B30074FF0000B400F5
:100E000075FF0000B50076FF0000B60077FF000018
:100E1000B70078FF0000B80079FF0000B9007AFF42
:100E20000000BA007BFF0000BB007CFF0000BC009C
:100E30007DFF0000BD007EFF0000BE007FFF0000C0
:100E4000BF0080FF0000C00081FF0000C10082FFE2
:100E50000000C20083FF0000C30084FF0000C40044
:100E600085FF0000C50086FF0000C60087FF000068
:100E7000C70088FF0000C80089FF0000C9008AFF82
:100E80000000CA008BFF0000CB008CFF0000CC00EC
:100E90008DFF0000CD008EFF0000CE008FFF000010
:100EA000CF0090FF0000D00091FF0000D10092FF22
:100EB0000000D20093FF0000D30094FF0000D40094
:100EC00095FF0000D50096FF0000D60097FF0000B8
:100ED000D70098FF0000D80099FF0000D9009AFFC2
:100EE0000000DA009BFF0000DB009CFF0000DC003C
:100EF0009DFF0000DD009EFF0000DE009FFF000060
:100F0000DF00E5FF00005C000000000001020404B7
:100F10000000001C1C0C040404020100000000007E
:100F2000040810000000000003002D2D2D2D2D2D94
:100F3000007C4D61726C696E7C0001002D2D2D2DA1
:100F40002D2D00200020003A003A00040E1F041C42
:100F5000000000000E1315110E00001C10181705DC
:100F6000060500040A0A0A0A11110E0C12120C00DE
:100F7000000000001F1511151F00004265640045A8
:100F80006E636C6F73757265004500200025002547
:100F900000202020202020200020002020202000D1
:100FA000200020002F006572720046696C2E2044DC
:100FB00069612E004520696E206D6D5E3300200250
:100FC0002046616374002002204D617800200220D9
:100FD0004D696E004F6666004F6E004175746F7408
:100FE000656D70004D696E2054726176656C20539A
:100FF00070656564004D696E2056656C6F63697439
:1010000079004D61782040205370656564004D6122
:1010100078204520416363656C004D617820402055
:10102000416363656C0054726176656C2041636353
:10103000656C005265747261637420416363656C12
:1010400000416363656C0050726F6265205A204FE7
:1010500066667365740050726F62652059204F6632
:10106000667365740050726F62652058204F666623
:1010700073657400402073746570732F6D6D00414B
:101080006476616E6365642053657474696E67731A
:10109000004D3432380046696C616D656E740054E1
:1010A000656D7065726174757265005374657073F7
:1010B0002F6D6D0050726F6265204F6666736574A8
:1010C00073004A756E6374696F6E204465760041E3
:1010D0006363656C65726174696F6E004D61782041
:1010E000537065656420286D6D2F732900536574F6
:1010F00020486F6D65204F66667365747300436F9B
:101100006E66696775726174696F6E0053572D4D15
:101110006F64650053746F77004465706C6F79007D
:1011200053656C662D546573740052657365740065
:10113000426564004E6F7A7A6C650046616E20539A
:101140007065656400436F6E666967757261746986
:101150006F6E00526573746F7265204465666175C9
:101160006C74730050726568656174202420436F4D
:101170006E6600424C546F7563680050726F626512
:10118000205A204F666673657400416476616E6311
:1011900065642053657474696E6773004D61696E90
:1011A00000436F6E66696775726174696F6E005493
:1011B000656D7065726174757265004D6F74696FED
:1011C0006E0054756E6500496E666F2053637265DC
:1011D000656E002100486F74656E6420746F6F2027
:1011E000636F6C64004261636B0050726F6365658E
:1011F00064004D6F76652045787472756465720081
:101200004D6F74696F6E0044697361626C65205341
:1012100074657070657273004D38340053746F7765
:10122000205A2D50726F6265004D34303200446593
:10123000706C6F79205A2D50726F6265004D34309A
:1012400031004175746F20486F6D6500473238007A
:101250004D61696E0050726568656174202420429A
:1012600065640050726568656174202420456E6471
:101270000054656D706572617475726500F101ED01
:1012800001436F6F6C646F776E00507265686561C3
:101290007420240046616E205370656564004265C9
:1012A00064004E6F7A7A6C65004D61696E00466C21
:1012B0006F770046616E2053706565640042656417
:1012C000004E6F7A7A6C65005370656564004D61FD
:1012D000696E006F70656E0054524947474552452C
:1012E00044003A20007A5F6D696E00795F6D696E27
:1012F00000785F6D696E005265706F7274696E6719
:1013000020656E6473746F70207374617475730AF2
:1013100000486F6D6520257320466972737400570D
:1013200061726E696E673A20486F6D696E67204220
:10133000756D702044697669736F72203C20310AA4
:1013400000020204000048430000484300004843F4
:101350000000A0400000A0400000004053544F5047
:101360005045442E20005072696E7465722073746B
:101370006F707065642064756520746F206572728B
:101380006F72732E204669782074686520657272CA
:101390006F7220616E6420757365204D3939392074
:1013A000746F20726573746172742E202854656D99
:1013B00070657261747572652069732072657365FA
:1013C000742E2053657420697420616674657220E0
:1013D00072657374617274696E67290A00206572A0
:1013E000726F72202D207265737461727420776938
:1013F0007468204D3939390A00424C546F7563685E
:101400000021212053544F502063616C6C6564208F
:1014100062656361757365206F6620000000484354
:1014200000004843000048430000000000000000A6
:101430000000000048617264636F64656420446565
:101440006661756C742053657474696E6773204CA3
:101450006F616465640000009643000096430000DD
:10146000A0400000C8410000A0420000A0420000CF
:10147000C8430000FA43B80B0000B80B000064003A
:1014800000001027000020286D6D29002046002054
:10149000420020480020204D3134352053004D615A
:1014A00074657269616C2068656174757020706123
:1014B00072616D65746572730020204D313439207E
:1014C00043203B20556E69747320696E2043656C20
:1014D000736975730A0054656D7065726174757215
:1014E0006520556E697473002020473231203B001F
:1014F0004C696E65617220556E6974730020436F8C
:10150000756E7420583A004D6963726F737465701C
:101510007320756E617661696C61626C650A00208A
:1015200045303A00205A3A0020593A0020583A00F3
:101530004D53317C327C332050696E7300426564B8
:10154000004531004500626564002C207379737496
:10155000656D2073746F70706564212048656174D7
:1015600065725F49443A20004572723A204D4158F5
:1015700054454D50004D415854454D5020747269AA
:101580006767657265640048656174696E672046C7
:1015900061696C65640048656174696E67206661A5
:1015A000696C6564004572723A204D494E54454D50
:1015B00050004D494E54454D50207472696767651F
:1015C00072656400544845524D414C2052554E417D
:1015D00057415900546865726D616C2052756E6197
:1015E00077617900202F002042403A0020403A00E5
:1015F0006D61726C696E66772E6F7267006D6172D5
:101600006C696E66772E6F726700322E312E322E25
:101610003200322E312E322E3200006D61726C6932
:101620006E66772E6F7267006D61726C696E667799
:101630002E6F72670020322E312E322E3200202083
:10164000506C616E6E657242756666657242797441
:1016500065733A20002046726565204D656D6F7296
:10166000793A200020436F6D70696C65643A2041BF
:10167000707220313520323032340A00204C6173D0
:101680007420557064617465643A20323032342DB0
:1016900030322D3038207C20417574686F723A20CA
:1016A000286E6F6E652C2064656661756C742063AE
:1016B0006F6E666967290A004D61726C696E20322F
:1016C0002E312E322E320A0020536F6674776172EB
:1016D000652052657365740A0020576174636864FD
:1016E0006F672052657365740A002042726F776ECF
:1016F000206F75742052657365740A0020457874F4
:1017000065726E616C2052657365740A00506F7764
:10171000657255700A0073746172740A00456E64D4
:1017200073746F7073002553202563202563202573
:101730006320256300656E6473746F70732068693D
:10174000743A2000434F4D4D554E49434154494F43
:101750004E0044525952554E004552524F5253007A
:10176000494E464F004543484F002001400130019B
:101770003B01400136016001310170012C019001F3
:101780002701B0012201C0011D01F0011801100262
:10179000130130020E016002090190020401C0022F
:1017A000FF000003FA004003F5008003F000D003BF
:1017B000EB002004E6007004E100E004DC004005DA
:1017C000D700C005D2004006CD00D006C800800773
:1017D000C3003008BE00F008B900C009B400B00A68
:1017E000AF00B00BAA00D00CA500000EA000500F57
:1017F0009B00C01096005012910000148C00C01580
:101800008700B0178200B0197D00D01B7800001E41
:10181000730040206E0090226900F024640040278D
:101820005F0090295A00E02B5500102E5000203008
:101830004B0010324600E033410090353C00103739
:10184000370070383200A0392D00B03A2800A03B94
:101850002300603C1E00103D1900903D1400103E16
:101860000F00703E0A00C03E0500003F0000403FF0
:10187000FBFF803FF6FFC03FF1FF00000A0B0209AB
:101880000C0D0E080703040100000000000000001A
:101890000000000000000000000000000000000048
:1018A0000000000000001211100000000000000005
:1018B0000000000000000000000000000000000028
:1018C00024F404D9201BC40C5C0E9804C4095F02E4
:1018D00065077101F405F900FB04B30048048700B3
:1018E000C10369005803550003034500BE023A00D6
:1018F0008402310053022A0029022500040220003C
:10190000E4011C00C8011900AF0117009801140080
:1019100084011300710110006101100051010E00DB
:1019200043010D0036010B002B010B0020010B00C1
:10193000150109000C01090003010800FB00080063
:10194000F3000800EB000700E4000600DE000600DC
:10195000D8000600D2000600CC000500C700050034
:10196000C2000500BD000400B9000400B500040079
:10197000B1000400AD000400A9000400A5000300AC
:10198000A20003009F0004009B00030098000300D6
:101990009500020093000300900003008D000200F8
:1019A0008B00030088000200860002008400030010
:1019B000810002007F0002007D0002007B00020027
:1019C0007900020077000100760002007400020036
:1019D00072000100710002006F0002006D00010042
:1019E0006C0002006A00010069000200670001004B
:1019F0006600010065000100640002006200010051
:101A000061000100600001005F0002005D00010054
:101A10005C0001005B0001005A0001005900010058
:101A20005800010057000100560001005500010058
:101A30005400010053000000530001005200010057
:101A400051000100500001004F0001004E00000055
:101A50004E0001004D0001004C0001004B00000051
:101A60004B0001004A00010049000100480000004D
:101A70004800010047000100460000004600010048
:101A80004500000045000100440001004300000043
:101A9000430001004200000042000100410000003C
:101AA00041000100400001003F0000003F00010034
:101AB0003E0000003E0001003D0000003D0001002E
:101AC0003C0000003C0000003C0001003B00000026
:101AD0003B0001003A0000003A000100390000001C
:101AE0003900010038000000380000003800010013
:101AF000370000003700010036000000360000000B
:101B000036000100350000003500000035000100FE
:101B100034000000340000003400010033000000F5
:101B200033000000330001003200000032000000EA
:101B300032000100310000003100000031000100DE
:101B40003000000030000000300001002F000000D5
:101B50002F0000002F0000002F0001002E000000C9
:101B60002E0000002E0001002D0000002D000000BE
:101B70002D0000002D0001002C0000002C000000B2
:101B80002C0000002C0001002B0000002B000000A6
:101B90002B0000002B0001002A0000002A0000009A
:101BA0002A0000002A00010029000000290000008E
:101BB0002900000029000000290001002800000081
:101BC0002800000028000000280000002800010074
:101BD0002700000027000000270000002700000069
:101BE000270001002600000026000000260000005B
:101BF000260000002600010025000000250000004E
:101C0000250000002500000025000000250001003F
:101C10002400000024000000240000002400000034
:101C20002400010023000000230000002300000026
:101C30002300000023000000230000002300010017
:101C4000220000002200000022000000220000000C
:101C500022000000220001002100000021000000FD
:101C600021000000210000002100000021000000F0
:101C700021000100200000002000000020000000E2
:101C800020000000200000002000000020000000D4
:101C9000200001001F0000001F0000001F000000C6
:101CA0001F0000001F0000001F0000001F000100B7
:101CB0001E0000001E0000001E0000001E000000AC
:101CC00024F4D43050C38E20C2A24017828B7011EE
:101CD000127A910D816CD90AA861E108C75866078C
:101CE000615143061E4B5D05C145A7041A4111040D
:101CF000093D9803713931034036DB0265339102A7
:101D0000D4305402802E1D02632CEE01752AC501C9
:101D1000B028A001102781018F2564012B244B01DD
:101D2000E0223401AC211F018D200D01801FFC0039
:101D3000841EED00971DDF00B81CD200E61BC60014
:101D4000201BBC00641AB200B219A8000A19A00036
:101D50006A189900D117910040178B00B5168400BE
:101D600031167E00B31579003A157300C7146F0061
:101D700058146A00EE1366008813630025135E0092
:101D8000C7125B006C12570015125400C1115100AC
:101D900070114F0021114B00D61049008D104700E3
:101DA0004610440002104200C00F4000800F3E0069
:101DB000420F3C00060F3B00CB0E3800930E37005D
:101DC0005C0E3500270E3400F30D3200C10D3100DA
:101DD000900D3000600D2E00320D2D00050D2C00F1
:101DE000D90C2B00AE0C2900850C29005C0C2700B7
:101DF000350C27000E0C2600E80B2400C40B240031
:101E0000A00B23007D0B23005A0B2100390B21006E
:101E1000180B2000F80A1F00D90A1E00BB0A1E007A
:101E20009D0A1D00800A1D00630A1C00470A1B0052
:101E30002C0A1B00110A1A00F7091A00DD09190003
:101E4000C4091900AB091900920917007B09180091
:101E5000630917004C091600360916002009160000
:101E60000A091500F5081500E0081400CC08140054
:101E7000B8081400A4081400900813007D0812008C
:101E80006B081300580812004608120034081100AD
:101E9000230811001208110001081100F0071000BA
:101EA000E0071000D0071000C0071000B0070F00B7
:101EB000A107100091070E0083070F0074070F00A1
:101EC00065070E0057070E0049070E003B070D007F
:101ED0002E070E0020070D0013070D0006070D004A
:101EE000F9060C00ED060D00E0060C00D4060C000F
:101EF000C8060C00BC060C00B0060C00A4060B00C3
:101F000099060C008D060B0082060B0077060B006D
:101F10006C060B0061060A0057060B004C060A000F
:101F200042060A0038060A002E060A0024060A00A5
:101F30001A060A001006090007060A00FD05090036
:101F4000F4050900EB050900E2050900D9050900BF
:101F5000D0050900C7050900BE050900B505080040
:101F6000AD050800A50509009C05080094050800BA
:101F70008C050800840508007C050800740508002D
:101F80006C050700650508005D050700560508009B
:101F90004E05070047050700400508003805070003
:101FA000310507002A050700230507001C05060068
:101FB000160507000F0507000805060002050700C3
:101FC000FB040600F5040700EE040600E804060022
:101FD000E2040700DB040600D5040600CF04060077
:101FE000C9040600C3040600BD040600B7040600C9
:101FF000B1040500AC040600A6040600A004050018
:102000009B04060095040500900406008A04050060
:1020100085040500800406007A04050075040500A7
:10202000700405006B0405006604050061040500EA
:102030005C04050057040500520405004D0405002A
:1020400048040500430405003E0404003A0405006A
:1020500035040500300404002C04050027040400A6
:10206000230405001E0404001A04040016040500DD
:10207000110404000D040400090405000404040014
:1020800000040400FC030400F8030400F40304004B
:10209000F0030400EC030400E8030400E40304007C
:1020A000E0030400DC030400D8030400D4030400AC
:1020B000D0030400CC030400C8030300C5030300DD
:1020C0005D2E0000CC22000037170000F30D000049
:1020D000C00700001A0400001D02000012010000E9
:1020E0004D6F766520246D6D00302E303235004DF9
:1020F0006F766520302E316D6D004D6F7665203125
:102100006D6D004D6F76652031306D6D004D6F76D1
:10211000652041786973004D6F7665202A004D6F08
:102120007665204000200020002000200020006F65
:102130006B00496E76616C696420657874727564B1
:1021400065720A00290A0020746F20003F5A206F30
:102150007574206F662072616E6765202800290AF9
:102160000020746F20003F59206F7574206F662027
:1021700072616E676520282D00290A0020746F2087
:10218000003F58206F7574206F662072616E67651E
:1021900020282D00454550524F4D206469736162DF
:1021A0006C65640A004F66667365747320417070D5
:1021B0006C696564004D494E2F4D415820546F6F36
:1021C0002046617200546F6F206661722066726FE4
:1021D0006D204D494E2F4D41580A0000000000006F
:1021E0000000000000000064697300656E00432970
:1021F0000A0061626C656420286D696E2074656DEB
:10220000702000436F6C6420657874727564657328
:102210002061726520003A200020536572766F209D
:1022200000206F7574206F662072616E67650A000A
:10223000536572766F200020466C6F773A20002538
:102240000A0046523A002058004F4646004F4E00C2
:102250003B200020204D61783A2000200020204DB6
:10226000696E3A2000203B200020204D3231312081
:1022700053003F4A206F7574206F662072616E674D
:10228000652028302E303120746F20302E33290AFB
:10229000004D31343520533C696E6465783E206FC3
:1022A0007574206F662072616E67652028302D314D
:1022B000290A002F2F003344205072696E74657212
:1022C000204F46462E004D3131332053006F666655
:1022D0000065176017591752174417444542554770
:1022E0003A006F6B002569730025696D20256973BD
:1022F000002569682025696D2025697300256964BA
:10230000202569682025696D202569730025697974
:1023100020256964202569682025696D2025697359
:10232000005072696E742074696D653A20004E6FBA
:10233000204D6F76652E00436C69636B20746F20AF
:10234000526573756D652E2E2E0050726F62696E28
:1023500067204661696C65640A0050726F62696E3D
:1023600067204661696C6564005A2050726F62652F
:1023700020506173742042656400205A3A20002086
:10238000593A200042656420583A20005A20507281
:102390006F62652050617374204265640A005A20A0
:1023A00050726F62652050617374204265640053FF
:1023B0006C6565702E2E2E0020746F6F206C6F6E12
:1023C0006720657874727573696F6E2070726576B8
:1023D000656E7465640A0020636F6C6420657874B0
:1023E000727573696F6E2070726576656E74656460
:1023F0000A00486F6D696E67204661696C6564000C
:10240000FFFFFF20453A00205A3A0020593A005871
:102410003A00204500205A0020590020204D393232
:1024200020580053746570732070657220756E6952
:102430007400220A00556E6B6E6F776E20636F6DAD
:102440006D616E643A202200DB0FC93F45BCDA3F64
:102450008FB30240FCF0274056946140FE4B9B40F6
:1024600084A5D840E0231841346A5641E859974181
:1024700064DBD5416E271742B4B75542CE1A974256
:10248000C8AED542B5885A43D40684BFA65FA7BF5D
:102490007443E0BF10B11AC01C2C58C0E8F697C0B6
:1024A000B849D6C04E4E17C124D355C1802497C118
:1024B000A0B5D5C1121A17C244AE55C2781797C23B
:1024C0006CACD5C267885AC320746F6F206C6F6E76
:1024D0006720657874727573696F6E2070726576A7
:1024E000656E7465640A0020636F6C64206578749F
:1024F000727573696F6E2070726576656E7465644F
:102500000A00627573793A2070617573656420669C
:102510006F7220696E7075740A00627573793A2063
:1025200070617573656420666F7220757365720AD9
:1025300000627573793A2070726F63657373696EA8
:10254000670A004D3131322053687574646F776EBD
:102550000053544F505045442E20005072696E7401
:1025600065722073746F7070656420647565207483
:102570006F206572726F72732E20466978207468BE
:1025800065206572726F7220616E642075736520BC
:102590004D39393920746F20726573746172742EED
:1025A000202854656D706572617475726520697359
:1025B0002072657365742E205365742069742061E0
:1025C000667465722072657374617274696E6729CE
:1025D0000A004E6F20436865636B73756D207769E1
:1025E0007468206C696E65206E756D6265722C2052
:1025F0004C617374204C696E653A200063686563B2
:102600006B73756D206D69736D617463682C204CFC
:10261000617374204C696E653A20004C696E6520C8
:102620004E756D626572206973206E6F74204C6107
:102630007374204C696E65204E756D6265722B3126
:102640002C204C617374204C696E653A20004D312A
:1026500031300053657269616C20737461747573F5
:10266000206D69736D617463680A004B494C4C209E
:10267000627574746F6E2F70696E0A002121204B91
:10268000494C4C2063617573656420627920007445
:102690006F6F206D75636820696E6163746976651C
:1026A0002074696D65202D2063757272656E7420CB
:1026B000636F6D6D616E643A20002121204B494C9F
:1026C0004C2063617573656420627920006F6B0A2A
:1026D00000526573656E643A20003344205072697D
:1026E0006E7465722052656164792E005072696E55
:1026F00074696E672E2E2E005072696E74205061C0
:10270000757365640000002200250028002B002E50
:10271000003100340002010000050108010B010036
:10272000002100240027002A002D00300033000182
:10273000010000040107010A010505050507050858
:10274000080808020202020A0A0808040404040134
:102750000101010101010103030303030303030456
:102760000707070C0C0C0C0C0C0C0C0202020206E6
:10277000060606060606060B0B0B0B0B0B0B0B01D6
:102780000210202008081020401020408002010282
:10279000010804020101020408102040808040204A
:1027A0001008040201800402018040201008040285
:1027B0000108040201010204081020408001020403
:1027C000081020408000A8B311241FBECFEFD1E233
:1027D000DEBFCDBF00E00CBF84B78093DC0D14BE1C
:1027E0000FB6F894A895809160008861809360008E
:1027F000109260000FBE12E0A0E0B2E0E2E5F3E864
:1028000001E00BBF02C007900D92A83EB107D9F7B7
:102810002DE0A8EEB2E001C01D92AC3DB207E1F799
:1028200013E1C4EED3E100E006C021970109802F37
:10283000FE010E9468BDC33ED10780E00807A9F7EA
:102840000E947FAD0C94A7C10C940000AF92BF9280
:10285000CF92DF92EF92FF920F931F93CF93DF936C
:102860006C017B018B01040F151FEB015E01AE189B
:10287000BF08C017D10759F06991D601ED91FC91BD
:102880000190F081E02DC6011995892B79F7C501DA
:10289000DF91CF911F910F91FF90EF90DF90CF903C
:1028A000BF90AF900895DC01ED91FC910684F7850F
:1028B000E02D41E0199581E090E00895DC01ED9173
:1028C000FC910684F785E02D40E0199461E0F6DF85
:1028D0008BE39FE10197F1F7089508950895089516
:1028E00090E080E00895CF93DF93C091800CD09169
:1028F000810C81E0CE31D105E4F020E030E040E011
:102900005FE360917C0C70917D0C80917E0C9091C6
:102910007F0C0E9483BD0E94C7BE6C1B7D0B77FF9E
:1029200003C071956195710981E0633071050CF008
:1029300080E0DF91CF9108958F929F92AF92BF92E6
:10294000CF92DF92EF92FF920F931F93CF93DF937B
:10295000B4E4A0E06A2F70E0AB014B0F511D559518
:102960004795411119C0ECE6F7E165917491072E86
:10297000000C880B990B0E940DB9DF91CF911F912C
:102980000F91FF90EF90DF90CF90BF90AF909F900E
:102990008F900895B42FE0CFA41711F0B41303C0A3
:1029A000E8E7F8E1E2CF9A0121503109220F331F05
:1029B000220F331FF901E659F84EE590F490F90122
:1029C000E259F84EC591D4918E159F0518F3A42FA6
:1029D000C817D90708F4BECFF901E459F84E05919C
:1029E0001491F901E059F84EC590D4908E199F09C1
:1029F000BC0190E080E00E940BB94B015C01B60184
:102A0000601B710B072E000C880B990B0E940DB9EF
:102A10009B01AC01C501B4010E946CB94B015C0182
:102A2000CE19DF09BE0190E080E00E940BB99B0146
:102A3000AC01C501B4010E945FBE6B017C01B8010D
:102A4000110F880B990B0E940DB99B01AC01C701B6
:102A5000B6010E9483BD91CFFC0190E1A0EDB3E0EF
:102A600001900D929A95E1F7089500C081E090E001
:102A70000197F0F780910B0480FF26C089988FEFB3
:102A80008093840380910B0481FF21C08F9A8FEF84
:102A90008093850380910B0482FF1CC080910B0101
:102AA0008270809309018FEF8093860380910B04DD
:102AB00083FF18C016988FEF8093870300C081E0D2
:102AC00090E00197F0F70895899A81E0D9CF8F9827
:102AD00081E0DECF80910B018095827080930901A7
:102AE00081E0E2CF169A81E0E7CFCF92DF92EF92BA
:102AF000FF9280919A04882309F457C0C0909604ED
:102B0000D0909704E0909804F090990420E030E091
:102B1000A901C701B6010E9407B9882309F445C07D
:102B200020E030E040E05FE3C701B6010E946CB9ED
:102B30009B01AC010E946CB92BED3FE049E450E4ED
:102B40000E946CB99B01AC0160E070E080E89FE3FB
:102B50000E945FBE6B017C01C0929204D0929304EC
:102B6000E0929404F092950460911702709118021B
:102B7000072E000C880B990B0E940DB92AE037ED47
:102B800043E25CE30E946CB9A70196010E946CB914
:102B900060933E0270933F02809340029093410203
:102BA000FF90EF90DF90CF900895C12CD12C80E85A
:102BB000E82E8FE3F82ED0CFFC017081472F50E034
:102BC000062E02C0559547950A94E2F740FF14C0BF
:102BD0004091810350E0062E02C0559547950A9416
:102BE000E2F740FF09C021E030E001C0220F6A9502
:102BF000EAF720952723208308951092650C109200
:102C00006A0310926B0310926C0310926D03109282
:102C1000A7041092A8041092A9041092AA0410927A
:102C20006603109267031092680310926903089577
:102C30009C0197FF26C0EE27FF27E81BF90B2D39D3
:102C40008FEF38070CF05DC08DE280936103CF01F8
:102C500064E670E00E9455BDCB012AE030E0B90186
:102C60000E9455BD805D80936203CF01B9010E942F
:102C700055BDCB01B9010E9455BD805D80936303B2
:102C80002AC0283E83E03807B4F1C90168EE73E03A
:102C90000E9455BDCB01EAE0F0E0BF010E9455BDA6
:102CA000805D80936103C90164E670E00E9455BDB8
:102CB000CB01BF010E9455BD805D80936203C901B5
:102CC000BF010E9455BDCB01BF010E9455BD805D73
:102CD00080936303F901CF016AE070E00E9455BD63
:102CE000805D8093640381E693E008958DE237FD73
:102CF000C5CF80E2C3CFF90180E2243631050CF064
:102D0000A4CF80E28093610380936203EA30F105EF
:102D10006CF38DE237FF80E280936203CF016AE0BB
:102D200070E00E9455BD605D60936303D4CF9C0149
:102D3000EAE0F0E0BF010E9455BD805D809364032E
:102D40002A303105CCF0CB01BF010E9455BD805D1A
:102D5000809363032436310594F0C90164E670E082
:102D60000E9455BDCB01BF010E9455BD805D80937F
:102D7000620382E693E0089584E693E0089583E693
:102D800093E008959C018436910544F164E670E077
:102D90000E9455BDCB016AE070E00E9455BD805D88
:102DA0008093620380E22A3031055CF0EAE0F0E0D3
:102DB000C901BF010E9455BDCB01BF010E9455BD95
:102DC000805D80936303C9016AE070E00E9455BD95
:102DD000805D8093640382E693E0089580E237FF8C
:102DE000DFCF3195219531098DE2DACF9C0180E268
:102DF0002436310558F0C90164E670E00E9441BDF7
:102E0000CB016AE070E00E9441BD805D8093620367
:102E100080E22A30310558F0EAE0F0E0C901BF0154
:102E20000E9441BDCB01BF010E9441BD805D8093E6
:102E30006303C9016AE070E00E9441BD805D809338
:102E4000640382E693E0089594E6899F900111243B
:102E500021583F4FC9016FEF70E00E9455BD462FCA
:102E6000E72F862F91E3643609F090E29093610397
:102E70008A30E0F0C90166EF79E00E9455BDCB01D0
:102E80006AE070E00E9455BD805D80936203842FEC
:102E90009E2F6AE070E00E9455BD805D80936303C1
:102EA00085E28093640381E693E0089580E2EDCFAC
:102EB000FC0184910895FC0180810895009751F0F0
:102EC000FC0180E09191992331F0907C9038D1F30E
:102ED0008F5FF8CF80E00895AF92BF92CF92DF92DC
:102EE000EF92FF920F931F93CF93DF93EC015B015F
:102EF0008A01FB01199587FD16C0C82ED12CF12C33
:102F0000E12C2196F801C082D182E282F382CE01C7
:102F1000DF91CF911F910F91FF90EF90DF90CF90B5
:102F2000BF90AF900895982F907E903CA9F48F7138
:102F300090E0B0E0A0E06C017D0156E0CC0CDD1C1F
:102F4000EE1CFF1C5A95D1F7CE010196F50119959B
:102F50008F73C82A2296D6CF982F907F903E11F576
:102F60008F7090E0B0E0A0E06C017D0136E0CC0C09
:102F7000DD1CEE1CFF1C3A95D1F7CE010196F50140
:102F800019958F73C82A46E0CC0CDD1CEE1CFF1C83
:102F90004A95D1F7CE010296F50119958F73C82A8B
:102FA0002396B0CF982F987F903F79F5877090E067
:102FB000B0E0A0E06C017D0186E0CC0CDD1CEE1CD5
:102FC000FF1C8A95D1F7CE010196F50119958F73F3
:102FD000C82A96E0CC0CDD1CEE1CFF1C9A95D1F79C
:102FE000CE010296F50119958F73C82A26E0CC0C04
:102FF000DD1CEE1CFF1C2A95D1F7CE010396F501CE
:1030000019958F73C82A24967DCF982F907C90387D
:1030100041F4807C803869F42196CE01F501199540
:10302000F8CF8E7F8D3F28F02196CE01F5011995BE
:10303000F8CFC12CD12C760165CF60911702709129
:103040001802072E000C880B990B0E940DB92AE07C
:1030500037ED43E25CE30E946CB920919204309119
:10306000930440919404509195040E946CB960932C
:103070003E0270933F028093400290934102089574
:1030800080918C04811104C080916C04809393051D
:103090000895CF93DF93EC01642F70E090E080E01F
:1030A0000E940DB929EC38EC48EC5EE30E945FBE4B
:1030B00020E030E040E05FE30E9483BD0E94CCBE90
:1030C0006883DF91CF91089570E090E080E00E94E6
:1030D0000DB929EC38EC48EC5EE30E945FBE20E0BD
:1030E00030E040E05FE30E9483BD0E94CCBE862FAB
:1030F000ABCEE0918C0486E0E802F0011124E556A5
:10310000FB4F80916C0490E0958384830895CF9366
:10311000DF93EC01CB01BA010E940DB920E030E051
:1031200048EC52E40E945FBE2FE632E143E85AE3E6
:103130000E9483BD688379838A839B83DF91CF91CB
:103140000895CF93DF93EC01CB01BA010E940DB932
:1031500020E030E048EC52E40E945FBE2FE632E10E
:1031600043E85AE30E9483BD688379838A839B8303
:10317000DF91CF910895CF93DF93EC01CB01BA019A
:103180000E940DB920E030E040E251E40E945FBEB1
:103190002AE037ED43E25CE30E9483BD68837983D4
:1031A0008A839B83DF91CF910895CF93DF93EC01C6
:1031B000CB01BA010E940BB92AE037ED43E25DE38F
:1031C0000E945FBE0E94CCBE688379838A839B8302
:1031D000DF91CF910895CF93DF93EC01CB01BA013A
:1031E0000E940DB92AE037ED43E25DE30E945FBE25
:1031F000688379838A839B83DF91CF910895CF93EE
:10320000DF93EC01CB01BA010E940DB96883798389
:103210008A839B83DF91CF910895FC015183408382
:103220000895CB01AFCDCF93DF93EC01CB01BA0171
:103230000E940DB920E030E04AE754E40E945FBEEE
:1032400027E137EB41ED58E30E9483BD6883798322
:103250008A839B83DF91CF910895CF92DF92EF9283
:10326000FF920F931F93CF93DF9300D000D01F9254
:103270001F92CDB7DEB78E010F5F1F4FD80130E030
:1032800020E0FB01E20FF31FE491ED932F5F3F4F2E
:1032900028303105B1F7877098E0899FB00111247B
:1032A000606489E29DE00ADB83E790E00197F1F733
:1032B0007801E8E0EE0EF11C8BE9C82ED12CF80164
:1032C00061918F0189E29DE0EEDAC6010197F1F785
:1032D000E016F106A1F728960FB6F894DEBF0FBEF0
:1032E000CDBFDF91CF911F910F91FF90EF90DF90B5
:1032F000CF90089563E77FE080E0AFDF6BE67FE08B
:1033000081E0ABDF63E67FE082E0A7DF6BE57FE093
:1033100086E0A3DF63E57FE087E09FDF6BE47FE08B
:1033200083E09BCFCF93823061F4C4E0C15058F06A
:1033300088E0C89FB0011124685F704F8C2F8DDF2B
:10334000F5CFCF91D7CFCF9108950F931F93522FE1
:103350002091270D3091280D2817390789F11092F7
:1033600082039093280D8093270D8B0130E020E09D
:1033700000937604109377042093780430937904B3
:103380004093700450937104805C974321F4109231
:103390005C0310925A0389E29DE098DA81E0209163
:1033A000270D3091280D205C374309F080E0BADF0B
:1033B00082E080931D0281E08093860410925B037B
:1033C0001F910F91089520E040E070E060E084E5F7
:1033D00091E2BBCFCF93C1E0C0935C03FC0180813D
:1033E0009181A281B3818093020290930302A09302
:1033F0000402B093050220E040E070E060E08091BC
:103400006A0490916B04A1DFC0938203CF91089569
:10341000CF93DF9300D01F92CDB7DEB78DEC9CEC3D
:10342000ACECBCE389839A83AB83BC83CE01019669
:10343000D1DF0F900F900F900F90DF91CF910895F3
:10344000CF93DF9300D01F92CDB7DEB78DEC9CEC0D
:10345000ACECBDE389839A83AB83BC83CE01019638
:10346000B9DF0F900F900F900F90DF91CF910895DB
:10347000CF93DF9300D01F92CDB7DEB780E090E00E
:10348000A0E8BFE389839A83AB83BC83CE01019616
:10349000A1DF0F900F900F900F90DF91CF910895C3
:1034A000CF93DF9300D01F92CDB7DEB780E090E0DE
:1034B000A0E2B1E489839A83AB83BC83CE010196F9
:1034C00089DF0F900F900F900F90DF91CF910895AB
:1034D000CF93DF93C0916204D091630481E0CE3139
:1034E000D105E4F020E030E040E05FE360915E046D
:1034F00070915F0480916004909161040E9483BD8B
:103500000E94C7BE6C1B7D0B77FF03C07195619550
:10351000710981E0633071050CF080E0DF91CF919B
:10352000089590E080E008952091400D833021F4CB
:1035300025FD0CC024FD0CC030E0A90102C055954A
:1035400047958A95E2F7CA018170089581E0089550
:1035500080E008959091020D8091010D891748F047
:10356000891B49F481E09091650C913029F080E04D
:103570000895805FF5CF81E0089581E00895009778
:1035800019F0019789F008951092900082E08093DD
:1035900091001092950010929400C19A8091710050
:1035A00082608093710008951092A00082E0809361
:1035B000A1001092A5001092A40089BB8093720014
:1035C0000895CF92DF92EF92FF920F931F93CF93C4
:1035D000DF9300D000D0CDB7DEB78A0146E0469F2A
:1035E0009001479F300D1124BC01620F731F46E00C
:1035F00050E0CE0101960E944DB8C980DA80EB8080
:10360000FC80F80140815181628173818FEF9FEFCF
:10361000C416D506E606F70640F081E090E04C15AA
:103620005D056E057F0508F080E026960FB6F894DC
:10363000DEBF0FBECDBFDF91CF911F910F91FF90E5
:10364000EF90DF90CF900895EF92FF921F93CF936A
:10365000DF93EC01162F7A01862F0E942F761E8BA6
:10366000FA86E986E881F9810484F585E02D60E039
:10367000CE01DF91CF911F91FF90EF9019940E949E
:1036800077C1BF92CF92DF92EF92FF920F931F9379
:10369000CF93DF938C01B42E6C018EE0C80ED11C49
:1036A000D0E0C0E0E62EF12CB7010C2E02C07595DB
:1036B00067950A94E2F76170F60181916F010E94AB
:1036C000C57C2196CB1580F361E0F80185850E94C9
:1036D000C57C60E0F8018585DF91CF911F910F9146
:1036E000FF90EF90DF90CF90BF900C94C57CFC01D1
:1036F00086898F3F71F021853285662329F0232B3F
:1037000031F461E00C94C57C21303105D1F360E0E7
:10371000F9CF08950F931F93CF93DF93EC01162FEA
:10372000042F61E0413009F060E08B850E94C57C88
:103730008C858F3F19F060E00E94C57C023071F0EB
:103740008C8148E084FD0BC0612F70E084E07595AA
:1037500067958A95E1F744E0CE0193DF44E0612F5D
:10376000CE01DF91CF911F910F918BCFAF92BF927E
:10377000CF92DF92EF92FF920F931F93CF935C0152
:103780006B018A0185519D4F7C01DC01CC91C7FF03
:103790003DC0FB0111821082CF5FD701CC93CC30AA
:1037A0000CF053C08CE08A9DF0018B9DF00D11242C
:1037B000CF018C0F911DC7FD9A952091EC0C281715
:1037C000190609F00CF441C0F60120813181FC0199
:1037D000EE0FFF1FE80FF91FEC55F34F8181928127
:1037E000820F931FD80111969C938E93808187FF3F
:1037F0003DC061E08F77CF911F910F91FF90EF90C7
:10380000DF90CF90BF90AF900C94C57C8CE08A9DE8
:10381000F0018B9DF00D1124CF018C0F911DC7FD80
:103820009A952091EC0C2817190609F00CF4B4CFE6
:10383000FC01EE0FFF1FE80FF91FEC55F34F8081DD
:1038400060E08F770E94C57CA7CFF60180819181CF
:1038500004968034FCE99F0710F480E49CE9D801C9
:1038600011969C938E938FEFF7018083CF911F91D8
:103870000F91FF90EF90DF90CF90BF90AF900895A1
:103880000F931F93CF93DF93EC01423018F08C819C
:1038900088608C834F836887222329F0413019F494
:1038A0008C8184608C8364E670E080E090E00E940C
:1038B000517D6C8164FD57C0E881F9810684F785EC
:1038C000E02D42E063E0CE0119958BE496E4019788
:1038D000F1F7E881F9810684F785E02D42E063E0A5
:1038E000CE01199503E512E0C8010197F1F7E881CF
:1038F000F9810684F785E02D42E063E0CE01199559
:10390000C8010197F1F7E881F9810684F785E02D78
:1039100042E062E0CE011995C8010197F1F76C8190
:103920006062CE010E945E148BEE90E00197F1F789
:1039300084E08D836CE0CE010E945E14CE010E9473
:10394000661482E08E8366E0CE010E945E14E881F8
:10395000F9810484F585E02D6FEFCE01DF91CF91E1
:103960001F910F9119946062CE010E945E148BE446
:1039700096E40197F1F76C816062CE010E945E14BB
:1039800003E512E0C8010197F1F76C816062CE0196
:103990000E945E14C1CFCF93DF93CDB7DEB72C97D3
:1039A0000FB6F894DEBF0FBECDBF19821A821B82FC
:1039B0001C821D821E821F82188619861A861B860B
:1039C0001C86AE014F5F5F4FBC0183E297E00E940F
:1039D000FE922C960FB6F894DEBF0FBECDBFDF91DE
:1039E000CF9108958F929F92AF92BF92CF92DF9224
:1039F000EF92FF926B017C01BA01550F880B990B76
:103A00000E940DB99B01AC0160E070E080E291E49E
:103A10000E94E4BF4B015C0120E030E040E251E451
:103A2000C701B6010E946CB9A50194010E946CB94E
:103A30004B015C0120E030E0A901C701B6010E9402
:103A400007B920E030E040EA50E487FF04C020E0FE
:103A500030E040EA50ECC501B4010E9483BD20E093
:103A600030E040E251E40E945FBE0E94C7BEFF907A
:103A7000EF90DF90CF90BF90AF909F908F90089580
:103A80008F929F92AF92BF92CF92DF92EF92FF926E
:103A9000CF936B017C0120E030E0A9010E9407B9BF
:103AA00087FDC2C06DEB77E386E095E3A701960141
:103AB0000E9483BD6B017C0120E030E0A9010E94DF
:103AC00007B987FF04C0F7FAF094F7F8F09442E0E2
:103AD00050E0C701B60186DF6B017C0160E280E443
:103AE000C81682E4D8068FE0E806F1048CF0C7011E
:103AF000B60120E432E44FE050E00E94EDBCCA0180
:103B0000B9012AE030E040E050E00E94EDBC605D89
:103B100060935D0360E280EAC81686E8D80681E01B
:103B2000E806F1048CF0C701B60120EA36E841E06E
:103B300050E00E94EDBCCA01B9012AE030E040E04B
:103B400050E00E94EDBC605D60935E0360E280E146
:103B5000C81687E2D806E104F1048CF0C701B6016B
:103B600020E137E240E050E00E94EDBCCA01B9011B
:103B70002AE030E040E050E00E94EDBC605D6093E0
:103B80005F0360E288EEC81683E0D806E104F10422
:103B90008CF0C701B60128EE33E040E050E00E940F
:103BA000EDBCCA01B9012AE030E040E050E00E94DB
:103BB000EDBC605D60936003C701B60124E630E0B0
:103BC00040E050E00E94EDBC8AE0882E912CA12CB0
:103BD000B12CCA01B901A50194010E94EDBC605D40
:103BE000609361038EE280936203C701B601A50171
:103BF00094010E94EDBCC62FCA01B901A501940130
:103C00000E94EDBC605D60936303C05DC09364037C
:103C10008DE593E0CF91FF90EF90DF90CF90BF9034
:103C2000AF909F908F9008956DEB77E386E095EBD2
:103C30003DCF0E940DB920E030E048EC52E40E94F4
:103C40005FBE2FE632E143E85AE30E9483BD18CFFE
:103C5000CF92DF92EF92FF92FC01C080D180E28090
:103C6000F38020E030E0A901C701B6010E9407B946
:103C700087FF04C0F7FAF094F7F8F09450E040E0C2
:103C8000C701B601AFDE9B0160E22031F7E23F07DA
:103C900030F0C90160E177E20E9441BD605D609350
:103CA0006003283E83E03807F0F1C90168EE73E055
:103CB0000E9441BDCB016AE070E00E9441BD805D81
:103CC0008093610380E22436310558F0C90164E62F
:103CD00070E00E9441BDCB016AE070E00E9441BDEE
:103CE000805D8093620380E22A30310558F0EAE07B
:103CF000F0E0C901BF010E9441BDCB01BF010E949C
:103D000041BD805D80936303C9016AE070E00E9459
:103D100041BD805D8093640380E693E0FF90EF9067
:103D2000DF90CF90089580E2CBCFCF93DF9300D088
:103D30001F92CDB7DEB70E940BB969837A838B835C
:103D40009C83CE01019684DF0F900F900F900F900F
:103D5000DF91CF9108950E940BB92AE037ED43E23D
:103D60005DE30E945FBE0E94CCBEDFCFCF92DF92A8
:103D7000EF92FF92CF93DF9300D01F92CDB7DEB7C3
:103D80006B017C0120E030E0A9010E9407B987FDAA
:103D90001AC06DEB77E386E095E3A70196010E94D8
:103DA00083BD69837A838B839C83CE01019650DF28
:103DB0000F900F900F900F90DF91CF91FF90EF90A9
:103DC000DF90CF9008956DEB77E386E095EBE5CF3C
:103DD0000E940DB92AE037ED43E25DE30E945FBE29
:103DE000C5CF0E940DB9C2CFFC0160817181828173
:103DF000938141E050E0F6DD9B018BE237FF05C087
:103E000022273327261B370B8DE280935F03C901DE
:103E100068EE73E00E9455BDCB01EAE0F0E0BF011F
:103E20000E9455BD805D80936003C90164E670E027
:103E30000E9455BDCB01BF010E9455BD805D80939E
:103E40006103C901BF010E9455BD282FCB01BF01ED
:103E50000E9455BD805D809362038EE28093630370
:103E6000205D209364038FE593E008958F929F92E5
:103E7000AF92BF92CF92DF92EF92FF92CF936B01FE
:103E80007C0120E030E0A9010E9407B987FF8AC0C9
:103E90006DEB77E386E095EBA70196010E9483BD69
:103EA0004B015C0142E050E09DDD6B017C0120E0B4
:103EB00030E040E251ECC501B4010E9407B9181688
:103EC00054F420E030E048EC52E4C501B4010E9413
:103ED000A9BF87FD6CC0C701B60120E137E240E011
:103EE00050E00E94EDBCCA01B9012AE030E040E098
:103EF00050E00E94EDBC605DF7FE09C0F094E094D4
:103F0000D094C094C11CD11CE11CF11C6DE26093E3
:103F10005F03C701B60128EE33E040E050E00E94A5
:103F2000EDBC9AE0892E912CA12CB12CCA01B901CB
:103F3000A50194010E94EDBC605D60936003C70120
:103F4000B60124E630E040E050E00E94EDBCCA013A
:103F5000B901A50194010E94EDBC605D609361030D
:103F60008EE280936203C701B601A50194010E940D
:103F7000EDBCC62FCA01B901A50194010E94EDBC98
:103F8000605D60936303C05DC09364038FE593E05D
:103F9000CF91FF90EF90DF90CF90BF90AF909F9028
:103FA0008F9008956DEB77E386E095E375CF20E081
:103FB00030E0A901C501B4010E94A9BF87FD0BC073
:103FC00020E030E040E251E4C501B4010E9407B9AD
:103FD00060E287FD1CC0C701B60128EE33E040E077
:103FE00050E00E94EDBCCA01B9012AE030E040E097
:103FF00050E00E94EDBC605DF7FE09C0F094E094D3
:10400000D094C094C11CD11CE11CF11C6DE26093E2
:104010006003C701B60124E630E040E050E00E94B2
:10402000EDBC8AE0882E912CA12CB12CCA01B901DB
:10403000A50194010E94EDBC605D609361038EE276
:1040400080936203C701B601A50194010E94EDBCF3
:10405000C62FCA01B901A50194010E94EDBC605DA3
:1040600060936303C05DC093640380E693E090CFE8
:104070000E940DB920E030E048EC52E40E945FBE9F
:104080002FE632E143E85AE30E9483BDEFCECF92A0
:10409000DF92EF92FF926B017C0120E030E0A901FA
:1040A0000E9407B987FD3DC06DEB77E386E095E39D
:1040B000A70196010E9483BD41E050E093DC9B0183
:1040C0008BE237FF05C022273327261B370B8DE2F3
:1040D00080936003C90164E670E00E9455BDCB0186
:1040E000EAE0F0E0BF010E9455BD805D809361036E
:1040F000C901BF010E9455BD282FCB01BF010E94FD
:1041000055BD805D809362038EE280936303205DE2
:104110002093640380E693E0FF90EF90DF90CF90D0
:1041200008956DEB77E386E095EBC2CF0E940DB961
:1041300020E030E040E251E40E945FBE2AE037ED2B
:1041400043E25CE30E9483BDA2CF8F929F92AF9225
:10415000BF92CF92DF92EF92FF92CF936B017C01DF
:1041600020E030E0A9010E9407B987FD69C06DEB2E
:1041700077E386E095E3A70196010E9483BD43E0C3
:1041800050E030DC6B017C01C114D104E104F10486
:1041900009F45BC0F7FE59C0F094E094D094C09449
:1041A000C11CD11CE11CF11C8DE280935F03C7018F
:1041B000B60128EE33E040E050E00E94EDBC8AE01A
:1041C000882E912CA12CB12CCA01B901A501940112
:1041D0000E94EDBC605D609360038EE2809361039A
:1041E000C701B60124E630E040E050E00E94EDBC9B
:1041F000CA01B901A50194010E94EDBC605D609304
:104200006203C701B601A50194010E94EDBCC62F4F
:10421000CA01B901A50194010E94EDBC605D6093E3
:104220006303C05DC09364038FE593E0CF91FF907B
:10423000EF90DF90CF90BF90AF909F908F900895B8
:104240006DEB77E386E095EB96CF80E2AECF0E94F0
:104250000DB920E030E04AE754E40E945FBE27E158
:1042600037EB41ED58E30E9483BD6FCF60916C0442
:104270008FEF0C94C3AB80916C04682F0C94C3AB8C
:104280006FEF80916C040C94C3AB61E77DE382E037
:104290000C940DAC63E77DE381E00C940DAC65E715
:1042A0007DE380E00C940DAC6BE47BE383E00C9445
:1042B0000DACCF93DF93CDB7DEB78E81282F082EBC
:1042C000000C330B9091AD049217130609F08CF497
:1042D0008093AD049E01275F3F4F4F81588568E270
:1042E00070E082ED94E00E94CFB810922303109208
:1042F0002203DF91CF9108950F931F93CF93DF9304
:10430000CDB7DEB72E970FB6F894DEBF0FBECDBF88
:104310008B011E861D86FC016081718182819381E3
:104320006F83788789879A872FEF2B87603871058D
:104330008105910538F489E29DE00E94531481E0E3
:1043400090E02FC09E01235F3F4FAE01495F5F4F5A
:1043500069EB70E082EB9AE00E944E7697FD2CC0EC
:104360008D859E8526E0289FB001299F700D112420
:104370006E54754F46E050E0CE0101960E944DB854
:104380006D8189E29DE00E94531401301105B9F25C
:104390006E816623A1F289E29DE00E94531482E0BF
:1043A00090E02E960FB6F894DEBF0FBECDBFDF9122
:1043B000CF911F910F9108959E01235F3F4FAE0152
:1043C000495F5F4F63E670E080E698E00E944E76BA
:1043D00097FD0BC08D859E8526E0289FB001299F03
:1043E000700D1124605A774FC5CF6FE3A4CF6FEFE4
:1043F0007FEF82CF4F925F926F927F928F929F92C8
:10440000AF92BF92CF92DF92EF92FF920F931F93E2
:10441000CF931092B0041092AF042FE320930D05B8
:1044200010920C0510920B051092CE041092CF043E
:104430001092D0041092D1049C01F90190812F5F59
:104440003F4F9032D1F39E34C9F4818190ED980FA3
:104450009A3020F08D3211F08B3281F432969F0128
:104460002F5F3F4F808180538A3008F473C09F01D3
:104470002F5F3F4F8081803209F46EC0F0931D079B
:10448000E0931C078F010F5F1F4FC0816AE270E04D
:10449000C8010E947BC1009731F0FC0131978081F7
:1044A0008032E1F31182CD3429F0C43519F0C734DC
:1044B00009F040C0F80180810F5F1F4F8032D1F3B7
:1044C00080538A30B8F5C0930D0510920C051092F8
:1044D0000B056AE09F012F5F3F4F40910B05509104
:1044E0000C05649FC001659F900D1124C097408109
:1044F000840F911D47FD9A9590930C0580930B05B1
:10450000F901208120532A3028F3DF0131962C91C4
:104510002032D9F3CD3461F58E31910539F0F0F4C4
:104520008731910519F08C31910511F5B093B004E4
:10453000A093AF04CF911F910F91FF90EF90DF9068
:10454000CF90BF90AF909F908F907F906F905F9033
:104550004F900895F90183CFF90189CF85379105EF
:1045600038F08737910510F3803A23E09207F1F293
:104570001092B0041092AF0450911C07C12CD12CA2
:104580007601C394FD0131964C91442399F2413256
:1045900099F4CD3489F48032910571F4F093B0042C
:1045A000E093AF0463E270E0CF010E947BC100970B
:1045B00009F2FC011082BECF41544A3108F07DC09F
:1045C000DF012D91203209F460C030ED320F3A3016
:1045D00008F46CC02E3209F05AC0218120532A30D1
:1045E00008F464C02091AF043091B0042115310566
:1045F00009F05EC0BF01615071097093B00460930F
:10460000AF04A42FB0E02601370104C0440C551CB0
:10461000661C771C4A95D2F78090CE049090CF0408
:10462000A090D004B090D10484289528A628B7285B
:104630008092CE049092CF04A092D004B092D10484
:1046400021153105C1F1251BA351BD4F2C932081AC
:104650002154DF012A3108F495CFDF012191222373
:1046600009F490CF30ED320F3A30B8F333ED320F1A
:10467000323098F32B3289F39D012F5F3F4F4C91DD
:10468000403209F07FCFD901F7CFFD0199CF2D320C
:1046900019F02B3209F0A6CF218130ED320F3A30DC
:1046A00028F02E3209F09ECF228198CF9F01A9CF0A
:1046B00030E020E0A6CF20E0C7CF2091AF043091BA
:1046C000B004232B21F6B093B004A093AF04BFCF66
:1046D0003FB7F8948091550490915604A0915704E7
:1046E000B091580426B5A89B05C02F3F19F001963C
:1046F000A11DB11D3FBFBA2FA92F982F8827BC013C
:10470000CD01620F711D811D911D42E0660F771F63
:10471000881F991F4A95D1F708952FB7F894609193
:1047200051047091520480915304909154042FBF0E
:104730000895CF93DF93C091800CD091810C209786
:1047400021F160917C0C70917D0C80917E0C909198
:104750007F0C0E94C7BE6E5F7F4F24976C177D074A
:10476000A4F47093FC036093FB03D7DF605C734693
:104770008F4F9F4F6093FD037093FE038093FF0361
:1047800090930004DF91CF9108951092FD03109251
:10479000FE031092FF0310920004F4CFCACFCF9310
:1047A000DF93C091800CD091810C209721F1609112
:1047B0007C0C70917D0C80917E0C90917F0C0E94FE
:1047C000C7BE6E5F7F4F24976C177D07A4F470936C
:1047D000FC036093FB03A1DF605C73468F4F9F4F28
:1047E0006093FD037093FE038093FF039093000496
:1047F000DF91CF9108951092FD031092FE03109265
:10480000FF0310920004F4CF0F931F9386DF0091F3
:104810001E0310911F032091200330912103601B80
:10482000710B820B930B97FD0CC086B186FB88271A
:1048300080F991E08927349B8260329B8460809369
:10484000AE048091AE0481709091AE0491FD8260BF
:1048500090911D03981749F0813009F148F082309A
:1048600079F0833091F080931D031F910F9108958B
:10487000913079F09230B9F790911C0391500CC0AF
:10488000992339F09330C1F3EECF9130A9F39230F0
:1048900051F790911C039F5F90931C03E4CF9923E1
:1048A00059F3933001F7F5CF20E044E064E189E269
:1048B0009DE00E94401C81E02091270D3091280D41
:1048C000205C374309F080E00E94921989E29DE064
:1048D0000E9466143E98469A3C98449A3A98429AA6
:1048E00093DF10921C030C94A276CF92DF92EF928A
:1048F000FF92CF93C82F11DF6B017C0124EA30E7D0
:104900004DE75FE36091020270910302809104021F
:10491000909105020E9407B987FD18C08AEF90E0C8
:10492000A0E0B0E08C0D9D1DAE1DBF1D80930C035B
:1049300090930D03A0930E03B0930F03C093000256
:10494000CF91FF90EF90DF90CF90089580E090E0BE
:10495000DC01E8CFCF93DF93C0916204D091630470
:10496000209721F160915E0470915F048091600452
:10497000909161040E94C7BE6E5F7F4F24976C17B1
:104980007D07A4F47093E6036093E503C6DE605AE6
:1049900075418F4F9F4F6093E7037093E8038093B7
:1049A000E9039093EA03DF91CF9108951092E70312
:1049B0001092E8031092E9031092EA03F4CF1F92D9
:1049C0000F920FB60F9211242F933F938F939F93C3
:1049D000AF93BF938091510490915204A0915304DE
:1049E000B09154043091500423E0230F2D3758F533
:1049F0000196A11DB11D2093500480935104909302
:104A00005204A0935304B0935404809155049091A0
:104A10005604A0915704B09158040196A11DB11DF0
:104A20008093550490935604A0935704B093580470
:104A3000BF91AF919F918F913F912F910F900FBE9A
:104A40000F901F90189526E8230F0296A11DB11D07
:104A5000D2CF0F930FB70F9300916E000D7F00938D
:104A60006E0078940F930BB70F930CB70F921F92B1
:104A70002F933F934F935F936F937F938F939F9366
:104A8000AF93BF93EF93FF9311249CD3FF91EF91CA
:104A9000BF91AF919F918F917F916F915F914F9156
:104AA0003F912F911F900F900CBF0F910BBF0F9153
:104AB0000260F89400936E000F910FBF0F9118954C
:104AC000CF93DF9310929205C8E7DCE01986188631
:104AD00066DE1A862C98CAE5D4E0198618863ADF75
:104AE0001A8680910201807280930001DF91CF913C
:104AF0000895BC012091CD033091CE034091CD03A8
:104B00005091CE032417350731F481E0261737077B
:104B100009F080E008959A01F1CF0F930FB70F933A
:104B200000916E000F930D7F00936E0000916F0057
:104B30000D7F00936F000F930BB70F930CB70F927D
:104B40001F922F933F934F935F936F937F938F9316
:104B50009F93AF93BF93EF93FF9311240E946D2F08
:104B6000FF91EF91BF91AF919F918F917F916F9145
:104B70005F914F913F912F911F900F900CBF0F911C
:104B80000BBF0F910260F89400936F000F91009398
:104B90006E000F910FBF0F91189580918303877F4F
:104BA00080938303129A81E0089512988091830381
:104BB000886080938303089521E030E0082E02C0CE
:104BC000220F331F0A94E2F72095309590918303CA
:104BD000292320938303813061F020F0823071F02B
:104BE00081E008955F9A8091BD048E7F8093BD041B
:104BF000F7CF8A9A8091BD048D7FF8CF809108010C
:104C000080958170809306018091BD048B7FEECFEB
:104C100080E0D2DF81E0D0DF82E0CEDFBECF813026
:104C200089F070F0823081F021E030E001C0220F85
:104C30008A95EAF780918303822B809383030895FA
:104C40005F98F2CF8A98F0CF90910801917090937D
:104C50000601EACF843021E0920714F084E091E06D
:104C60009093810C8093800C64CD80916C04909122
:104C70006D04F0CFCF93DF932091910421111DC0DB
:104C80009091820391111AC0C0911B02D0911C0215
:104C9000219720E030E040E05FE360917C0C709170
:104CA0007D0C80917E0C90917F0C0E9483BD0E94B0
:104CB000C7BE21E06C177D070CF020E0822FDF914A
:104CC000CF910895D7DF882341F020E040E070E0E5
:104CD00060E084E296E30C94A5190C94E319AF927A
:104CE000BF92CF92DF92EF92FF920F931F93CF93D9
:104CF000DF93CAE4D5E00FE115E08AE5A82E85E050
:104D0000B82EC12CD12C7601C394699179918991E7
:104D100099910E940BB9288939894A895B890E9437
:104D20006CB90E94CCBEF801619371938193919309
:104D30008F01C616D706E806F90610F46B017C0150
:104D4000AC16BD0611F76FEF7FEFCB01A7019601FF
:104D50000E94CBBC20932F05309330054093310542
:104D600050933205DF91CF911F910F91FF90EF90FB
:104D7000DF90CF90BF90AF9008950F931F93CF9384
:104D8000DF930EE515E0C7E3D5E0F80121913191FD
:104D9000419151918F0160E070E080E89FE30E94B3
:104DA0005FBE6993799389939993F5E0C734DF07E0
:104DB00061F70E942778DF91CF911F910F918FCFDC
:104DC000DCCFDBCF8CCF8BCF8ACF89CF9091010DF9
:104DD0008091020D981306C0809147059091480577
:104DE000892B19F00E94847DF1CF08959091010DD7
:104DF0008091020D981307C0809147059091480556
:104E0000892B09F405CF0E94847DF0CF4F925F92E9
:104E10006F927F928F929F92AF92BF92CF92DF92CA
:104E2000EF92FF920F931F93CF93DF93CDB7DEB72F
:104E30002E970FB6F894DEBF0FBECDBF9E878D872D
:104E40005B018A01DC01D6966D917D918D919C91DB
:104E5000D9970E940BB96B017C01F501208131814A
:104E6000428153810E946CB90E9449BE4B015C0192
:104E7000D8012D913D914D915C91C701B6010E94E1
:104E80006CB90E9449BE2B013C01C501B4010E94CE
:104E9000CCBE6D837E838F839887683771058105CB
:104EA000910540F408E710E020E030E00D831E8318
:104EB0002F833887C301B2010E94CCBE69837A83F5
:104EC0008B839C83683771058105910540F428E741
:104ED00030E040E050E029833A834B835C83AD852A
:104EE000BE8595968D909D90AD90BC909897FD0154
:104EF000EE5BFF4F60817181828193816115710545
:104F00008105910509F4D7C00E940DB99B01AC0140
:104F100060E070E080E89FE30E945FBE20E030E048
:104F200040E05FE30E946CB92B013C01A7019601B0
:104F3000C701B6010E946CB96B017C0169817A815D
:104F40008B819C810E940BB99B01AC010E946CB9C2
:104F50009B01AC01C701B6010E9482BDA301920171
:104F60000E946CB969877A878B879C876D817E8167
:104F70008F8198850E940BB99B01AC010E946CB98E
:104F80009B01AC01C701B6010E9482BDA301920141
:104F90000E946CB92B013C010E9449BE0E94CCBE0C
:104FA0006B017C0169857A858B859C850E94F8BEA2
:104FB0000E94CCBEDC01CB01B701A601480F591FEE
:104FC0006A1F7B1F95018401041B150B260B370BF1
:104FD000B901A80177FF35C0C501B4010E940BB922
:104FE000A30192010E9483BD29853A854B855C858A
:104FF0000E9482BD20E030E040E05FE30E946CB997
:105000000E9449BE6B017C0120E030E0A9010E94B2
:10501000A9BF18161CF0C12CD12C7601C701B6010E
:105020000E94CCBE6B017C018C149D04AE04BF04B5
:1050300010F475016401D501C4018C199D09AE09F4
:10504000BF09ED85FE85C1A6D2A6E3A6F4A695010B
:105050008401081B190B2A0B3B0BD901C80185A73A
:1050600096A7A7A7B0AB0D811E812F81388502AF0F
:1050700013AF24AF35AFFE9609811A812B813C8195
:1050800000831183228333832E960FB6F894DEBFFC
:105090000FBECDBFDF91CF911F910F91FF90EF9089
:1050A000DF90CF90BF90AF909F908F907F906F9048
:1050B0005F904F90089580E090E0DC01C12CD12CEE
:1050C0007601BFCF90916F0081E091FD02C080E03A
:1050D000089590916F009D7F90936F000895EFE683
:1050E000F0E08081826080830895ECDF91E090930E
:1050F000CF038111F4CF0895CF93DF938091CD0436
:10510000811105C08091BE04882309F458C08091A4
:105110006E03659B4EC0816080936E039091030186
:1051200080916E0391FF47C0826080936E038091EF
:105130006E034B9B42C0846080936E03C091C0039A
:10514000C0FF0FC080910B0480FF0BC080916E03E5
:1051500080FF07C080910E05816080930E0580E07E
:10516000C4DFC1FF0FC080910B0481FF0BC0809191
:105170006E0381FF07C080910E05826080930E054B
:1051800081E0B3DFC2FF1BC080910B0482FF17C018
:105190008091BE04882399F080916E0382FF0FC036
:1051A00080910E05846080930E0582E0DF91CF919F
:1051B0009CCF8E7FB1CF8D7FB8CF8B7FBDCFDF915E
:1051C000CF91089580910C028F3708F43FC08F571C
:1051D0009091820C9093FA039923B1F12C9A20912B
:1051E00064042093F903909102012111909590722B
:1051F000909300018F5F80930C028091F80391E0FF
:1052000089278093F8038111FFDA80910B0291E0E6
:10521000980F85300CF090E0823009F46FC014F5DF
:105220008823B1F1813009F45DC090930B0264DFF3
:105230008091470590914805009729F00197909338
:1052400048058093470508952C98C9CF9091FA039B
:10525000891708F02C989091F903891758F29091CA
:105260000201C5CF843009F461C00CF45AC0853006
:10527000E1F62091F703211102C08093F70380919A
:10528000F70381508093F703882379F295E0CDCF1F
:1052900080910A028F5F80311CF480930A02C5CF8F
:1052A00010920A028091F603811113C02091780CAC
:1052B0003091790C30937B0C20937A0C20915A0416
:1052C00030915B0430935D0420935C0481E0809313
:1052D000F6031092790C1092780C10925B041092E5
:1052E0005A04A3CF88E080937B0085E480937C0000
:1052F00080917A00806480937A0097CF80917A00C1
:1053000086FD27C040917800509179002091780C5B
:105310003091790C240F351F3093790C2093780C41
:1053200084CF88E080937B0086E4E0CF80917A0090
:1053300086FD11C0409178005091790020915A0467
:1053400030915B04240F351F30935B0420935A0483
:105350006CCF92E06ACF94E068CFB4DE1092330550
:105360001092340510923505109236058111B7CE92
:105370000895FC01208131814281538160916A0549
:1053800070916B0580916C0590916D050E946CB9D0
:105390000E94B4BF60930F0D7093100D8093110D98
:1053A0009093120D9091010D8091020D98130C9421
:1053B0004F820CDD87DE40910F0D5091100D6091F2
:1053C000110D7091120D4093DC035093DD03609337
:1053D000DE037093DF03811182CE08954F925F92B6
:1053E0006F927F928F929F92AF92BF92CF92DF92F5
:1053F000EF92FF92CF93DF93EC0120916A053091F9
:105400006B0540916C0550916D056C857D858E8591
:105410009F850E946CB90E94B4BF6B017C012091F2
:10542000660530916705409168055091690568856A
:1054300079858A859B850E946CB90E94B4BF4B0117
:105440005C012091620530916305409164055091A3
:1054500065056C817D818E819F810E946CB90E945F
:10546000B4BF2B013C0120915E0530915F05409156
:10547000600550916105688179818A819B810E94D4
:105480006CB90E94B4BF6093030D7093040D8093B8
:10549000050D9093060D4092070D5092080D6092F5
:1054A000090D70920A0D80920B0D90920C0DA09236
:1054B0000D0DB0920E0DC0920F0DD092100DE09216
:1054C000110DF092120D9091010D8091020D98171F
:1054D00081F0DF91CF91FF90EF90DF90CF90BF9060
:1054E000AF909F908F907F906F905F904F900C94B3
:1054F0004F826CDCE7DDC82F83E09DE00E942C1515
:10550000CC2379F0DF91CF91FF90EF90DF90CF9097
:10551000BF90AF909F908F907F906F905F904F90D3
:10552000DECDDF91CF91FF90EF90DF90CF90BF90D5
:10553000AF909F908F907F906F905F904F90089565
:10554000CF92DF92EF92FF92CF93DF93C82FBADD15
:1055500094E0C99FE0011124FE01E053FC4FC0809C
:10556000D180E280F3808111BADDC95CDA4FC701D6
:10557000B6010E940DB9288139814A815B810E9460
:105580006CB9DF91CF91FF90EF90DF90CF900895AD
:105590008F929F92AF92BF92CF92DF92EF92FF9243
:1055A0001F93CF93DF93CDB7DEB760970FB6F89414
:1055B000DEBF0FBECDBF182F80E0C2DF4B015C0104
:1055C00080926F0390927003A0927103B092720365
:1055D00081E0B6DF6B017C01C0927303D09274034B
:1055E000E0927503F092760382E0AADF609377037E
:1055F000709378038093790390937A0389829A82D7
:10560000AB82BC82CD82DE82EF82F88669877A87A0
:105610008B879C8783E094DF6D877E878F87988B4D
:105620001E3FD9F480E1FE013196A3E2B7E001907C
:105630000D928A95E1F760960FB6F894DEBF0FBE23
:10564000CDBFDF91CF911F91FF90EF90DF90CF9072
:10565000BF90AF909F908F90089524E0129FC0015B
:105660001124FC01ED5DF84FA1E0B0E0AC0FBD1FCF
:105670008A0F9B1FDC014D915D916D917C91408360
:10568000518362837383D7CFCF93DF9324E0829FCC
:10569000C0011124EC01C15FDA4FFC01E054FB4F63
:1056A0008F549B4FDC012D913D914D915C91608118
:1056B0007181828193810E9483BD688379838A830B
:1056C0009B83DF91CF910895CF93DF931F92CDB746
:1056D000DEB7898360E0CE0101960E94DC1561E0AF
:1056E000CE0101960E94DC1562E0CE0101960E9477
:1056F000DC1589810F90DF91CF9108958F929F9251
:10570000AF92BF92CF92DF92EF92FF92CF93DF934F
:1057100020911E02222309F48EC0EC0180918103A6
:10572000E82E80FF2CC08090200290902102A09053
:105730002202B0902302288139814A815B81C50110
:10574000B4010E94A9BF181624F488829982AA8203
:10575000BB8280902C0290902D02A0902E02B090DF
:105760002F02288139814A815B81C501B4010E94E1
:1057700007B987FF04C088829982AA82BB82E1FEB2
:105780002CC08090240290902502A0902602B09018
:1057900027022C813D814E815F81C501B4010E94A9
:1057A000A9BF181624F48C829D82AE82BF8280909D
:1057B000300290903102A0903202B09033022C81DE
:1057C0003D814E815F81C501B4010E9407B987FF09
:1057D00004C08C829D82AE82BF82E2FE2CC0C0904B
:1057E0002802D0902902E0902A02F0902B0228850E
:1057F00039854A855B85C701B6010E94A9BF181685
:1058000024F4C886D986EA86FB86C0903402D090FC
:105810003502E0903602F0903702288539854A85B6
:105820005B85C701B6010E9407B987FF04C0C8861F
:10583000D986EA86FB86DF91CF91FF90EF90DF90CB
:10584000CF90BF90AF909F908F90089580917D03EF
:1058500090917E03A0917F03B091800380933A02E0
:1058600090933B02A0933C02B0933D0280917B0356
:1058700090917C039093390280933802089580912F
:105880003A0290913B02A0913C02B0913D0280937C
:105890007D0390937E03A0937F03B0938003809158
:1058A00038029091390290937C0380937B0384E6C5
:1058B00090E0909339028093380208958F929F92DE
:1058C000AF92BF92CF92DF92EF92FF920F931F930E
:1058D000CF93DF9300D000D01F921F92CDB7DEB7D9
:1058E0007C016B018A01F90180809180A280B380E4
:1058F00020E030E0A901B401C5010E9407B9882366
:1059000009F491C0582D492D3A2D2B2D852F942F18
:10591000A32FB22F89839A83AB83BC8320E030E02E
:10592000A901B401C5010E9407B9811106C0812CEB
:10593000912C80E8A82E90E4B92EC401D5018D8366
:105940009E83AF83B887F80180809180A280B38066
:10595000A501940160912B0770912C0780912D0770
:1059600090912E070E9407B987FF0CC080922B07E9
:1059700090922C07A0922D07B0922E07CE0105968B
:105980000E94CB1CF60180819181A281B381F70135
:105990004081518162817381409323075093240792
:1059A0006093250770932607809327079093280715
:1059B000A0932907B0932A07CE0101960E94CB1C21
:1059C000F801C080D180E280F380A7019601609148
:1059D0002B0770912C0780912D0790912E070E9424
:1059E000A9BF181664F4C0922B07D0922C07E0923E
:1059F0002D07F0922E07CE0105960E94CB1CE6D90A
:105A000028960FB6F894DEBF0FBECDBFDF91CF91C1
:105A10001F910F91FF90EF90DF90CF90BF90AF90CC
:105A20009F908F90089550E040E035E023E46ECFE2
:105A3000CF93DF9300D000D01F921F92CDB7DEB777
:105A4000AC019B0198E0E3E2F7E0DE0111960190E2
:105A50000D929A95E1F7BE016B5F7F4FCE010196E3
:105A60002DDF28960FB6F894DEBF0FBECDBFDF91B5
:105A7000CF9108950C942778CF9324DBC82F809181
:105A8000020D8093010D8093000D8093FF0C84E63E
:105A90008093FE0C62DC81ED93E090934805809347
:105AA0004705C1111CDB81E08093CF038FD98EEFB6
:105AB0006FDDCF91DFCF0F931F938091650C813005
:105AC00019F50E948D2300916A0310916B032091B8
:105AD0006C0330916D03601B710B820B930B28EEEE
